{"abi":[{"type":"constructor","inputs":[],"stateMutability":"nonpayable"},{"type":"function","name":"arbiter","inputs":[],"outputs":[{"name":"","type":"address","internalType":"address"}],"stateMutability":"view"},{"type":"function","name":"complete","inputs":[{"name":"escrowId","type":"uint256","internalType":"uint256"}],"outputs":[],"stateMutability":"nonpayable"},{"type":"function","name":"createEscrow","inputs":[{"name":"beneficiary","type":"address","internalType":"address"},{"name":"description","type":"string","internalType":"string"}],"outputs":[{"name":"","type":"uint256","internalType":"uint256"}],"stateMutability":"payable"},{"type":"function","name":"escrowCount","inputs":[],"outputs":[{"name":"","type":"uint256","internalType":"uint256"}],"stateMutability":"view"},{"type":"function","name":"escrows","inputs":[{"name":"","type":"uint256","internalType":"uint256"}],"outputs":[{"name":"id","type":"uint256","internalType":"uint256"},{"name":"depositor","type":"address","internalType":"address"},{"name":"beneficiary","type":"address","internalType":"address"},{"name":"amount","type":"uint256","internalType":"uint256"},{"name":"status","type":"uint8","internalType":"enum Escrow.EscrowStatus"},{"name":"description","type":"string","internalType":"string"},{"name":"createdAt","type":"uint256","internalType":"uint256"}],"stateMutability":"view"},{"type":"function","name":"getContractBalance","inputs":[],"outputs":[{"name":"","type":"uint256","internalType":"uint256"}],"stateMutability":"view"},{"type":"function","name":"getEscrow","inputs":[{"name":"escrowId","type":"uint256","internalType":"uint256"}],"outputs":[{"name":"","type":"uint256","internalType":"uint256"},{"name":"","type":"address","internalType":"address"},{"name":"","type":"address","internalType":"address"},{"name":"","type":"uint256","internalType":"uint256"},{"name":"","type":"uint8","internalType":"enum Escrow.EscrowStatus"},{"name":"","type":"string","internalType":"string"},{"name":"","type":"uint256","internalType":"uint256"}],"stateMutability":"view"},{"type":"function","name":"raiseDispute","inputs":[{"name":"escrowId","type":"uint256","internalType":"uint256"}],"outputs":[],"stateMutability":"nonpayable"},{"type":"function","name":"refund","inputs":[{"name":"escrowId","type":"uint256","internalType":"uint256"}],"outputs":[],"stateMutability":"nonpayable"},{"type":"function","name":"resolveDispute","inputs":[{"name":"escrowId","type":"uint256","internalType":"uint256"},{"name":"releaseToBeneficiary","type":"bool","internalType":"bool"}],"outputs":[],"stateMutability":"nonpayable"},{"type":"event","name":"DisputeResolved","inputs":[{"name":"id","type":"uint256","indexed":true,"internalType":"uint256"},{"name":"releasedToBeneficiary","type":"bool","indexed":false,"internalType":"bool"}],"anonymous":false},{"type":"event","name":"EscrowCompleted","inputs":[{"name":"id","type":"uint256","indexed":true,"internalType":"uint256"},{"name":"beneficiary","type":"address","indexed":true,"internalType":"address"},{"name":"amount","type":"uint256","indexed":false,"internalType":"uint256"}],"anonymous":false},{"type":"event","name":"EscrowCreated","inputs":[{"name":"id","type":"uint256","indexed":true,"internalType":"uint256"},{"name":"depositor","type":"address","indexed":true,"internalType":"address"},{"name":"beneficiary","type":"address","indexed":true,"internalType":"address"},{"name":"amount","type":"uint256","indexed":false,"internalType":"uint256"}],"anonymous":false},{"type":"event","name":"EscrowDisputed","inputs":[{"name":"id","type":"uint256","indexed":true,"internalType":"uint256"},{"name":"raisedBy","type":"address","indexed":true,"internalType":"address"}],"anonymous":false},{"type":"event","name":"EscrowRefunded","inputs":[{"name":"id","type":"uint256","indexed":true,"internalType":"uint256"},{"name":"depositor","type":"address","indexed":true,"internalType":"address"},{"name":"amount","type":"uint256","indexed":false,"internalType":"uint256"}],"anonymous":false}],"bytecode":{"object":"0x6080604052348015600e575f5ffd5b50335f5f6101000a81548173ffffffffffffffffffffffffffffffffffffffff021916908373ffffffffffffffffffffffffffffffffffffffff1602179055505f600181905550611ffc806100625f395ff3fe608060405260043610610090575f3560e01c80636f9fb98a116100585780636f9fb98a146101805780637d19e596146101aa578063971d852f146101ec578063a5c1674e14610214578063fe25e00a1461023c57610090565b8063012f52ee14610094578063278ecde1146100d657806334b25ee2146100fe5780633f407b4f14610126578063675ac67a14610156575b5f5ffd5b34801561009f575f5ffd5b506100ba60048036038101906100b59190611480565b610266565b6040516100cd97969594939291906115dc565b60405180910390f35b3480156100e1575f5ffd5b506100fc60048036038101906100f79190611480565b610374565b005b348015610109575f5ffd5b50610124600480360381019061011f9190611685565b610646565b005b610140600480360381019061013b9190611819565b610a09565b60405161014d9190611873565b60405180910390f35b348015610161575f5ffd5b5061016a610d27565b6040516101779190611873565b60405180910390f35b34801561018b575f5ffd5b50610194610d2d565b6040516101a19190611873565b60405180910390f35b3480156101b5575f5ffd5b506101d060048036038101906101cb9190611480565b610d34565b6040516101e397969594939291906115dc565b60405180910390f35b3480156101f7575f5ffd5b50610212600480360381019061020d9190611480565b610f6e565b005b34801561021f575f5ffd5b5061023a60048036038101906102359190611480565b6111ea565b005b348015610247575f5ffd5b50610250611418565b60405161025d919061188c565b60405180910390f35b6002602052805f5260405f205f91509050805f015490806001015f9054906101000a900473ffffffffffffffffffffffffffffffffffffffff1690806002015f9054906101000a900473ffffffffffffffffffffffffffffffffffffffff1690806003015490806004015f9054906101000a900460ff16908060050180546102ed906118d2565b80601f0160208091040260200160405190810160405280929190818152602001828054610319906118d2565b80156103645780601f1061033b57610100808354040283529160200191610364565b820191905f5260205f20905b81548152906001019060200180831161034757829003601f168201915b5050505050908060060154905087565b8060015481106103b9576040517f08c379a00000000000000000000000000000000000000000000000000000000081526004016103b09061194c565b60405180910390fd5b5f60025f8481526020019081526020015f2090505f60038111156103e0576103df6114f9565b5b816004015f9054906101000a900460ff166003811115610403576104026114f9565b5b14610443576040517f08c379a000000000000000000000000000000000000000000000000000000000815260040161043a906119b4565b60405180910390fd5b806001015f9054906101000a900473ffffffffffffffffffffffffffffffffffffffff1673ffffffffffffffffffffffffffffffffffffffff163373ffffffffffffffffffffffffffffffffffffffff1614806104eb57505f5f9054906101000a900473ffffffffffffffffffffffffffffffffffffffff1673ffffffffffffffffffffffffffffffffffffffff163373ffffffffffffffffffffffffffffffffffffffff16145b61052a576040517f08c379a000000000000000000000000000000000000000000000000000000000815260040161052190611a1c565b60405180910390fd5b6002816004015f6101000a81548160ff02191690836003811115610551576105506114f9565b5b02179055505f816003015490505f8260030181905550816001015f9054906101000a900473ffffffffffffffffffffffffffffffffffffffff1673ffffffffffffffffffffffffffffffffffffffff166108fc8290811502906040515f60405180830381858888f193505050501580156105cd573d5f5f3e3d5ffd5b50816001015f9054906101000a900473ffffffffffffffffffffffffffffffffffffffff1673ffffffffffffffffffffffffffffffffffffffff16847feac97bc1917fcedc984e3d0671d4e83b359890323d5d1c2de32b28d17c356ced836040516106389190611873565b60405180910390a350505050565b5f5f9054906101000a900473ffffffffffffffffffffffffffffffffffffffff1673ffffffffffffffffffffffffffffffffffffffff163373ffffffffffffffffffffffffffffffffffffffff16146106d4576040517f08c379a00000000000000000000000000000000000000000000000000000000081526004016106cb90611a84565b60405180910390fd5b816001548110610719576040517f08c379a00000000000000000000000000000000000000000000000000000000081526004016107109061194c565b60405180910390fd5b5f60025f8581526020019081526020015f2090506003808111156107405761073f6114f9565b5b816004015f9054906101000a900460ff166003811115610763576107626114f9565b5b146107a3576040517f08c379a000000000000000000000000000000000000000000000000000000000815260040161079a90611aec565b60405180910390fd5b5f816003015490505f826003018190555083156108c4576001826004015f6101000a81548160ff021916908360038111156107e1576107e06114f9565b5b0217905550816002015f9054906101000a900473ffffffffffffffffffffffffffffffffffffffff1673ffffffffffffffffffffffffffffffffffffffff166108fc8290811502906040515f60405180830381858888f1935050505015801561084c573d5f5f3e3d5ffd5b50816002015f9054906101000a900473ffffffffffffffffffffffffffffffffffffffff1673ffffffffffffffffffffffffffffffffffffffff16857f26c6863587332cefc2b323800ae3340bd094735ffa447072bf163101739e7df4836040516108b79190611873565b60405180910390a36109ca565b6002826004015f6101000a81548160ff021916908360038111156108eb576108ea6114f9565b5b0217905550816001015f9054906101000a900473ffffffffffffffffffffffffffffffffffffffff1673ffffffffffffffffffffffffffffffffffffffff166108fc8290811502906040515f60405180830381858888f19350505050158015610956573d5f5f3e3d5ffd5b50816001015f9054906101000a900473ffffffffffffffffffffffffffffffffffffffff1673ffffffffffffffffffffffffffffffffffffffff16857feac97bc1917fcedc984e3d0671d4e83b359890323d5d1c2de32b28d17c356ced836040516109c19190611873565b60405180910390a35b847f5a87909bff68caaaaf0b3fd9c74eeccc928832f879315e5c6fb7a73612f26c0c856040516109fa9190611b19565b60405180910390a25050505050565b5f5f3411610a4c576040517f08c379a0000000000000000000000000000000000000000000000000000000008152600401610a4390611b7c565b60405180910390fd5b5f73ffffffffffffffffffffffffffffffffffffffff168373ffffffffffffffffffffffffffffffffffffffff1603610aba576040517f08c379a0000000000000000000000000000000000000000000000000000000008152600401610ab190611be4565b60405180910390fd5b3373ffffffffffffffffffffffffffffffffffffffff168373ffffffffffffffffffffffffffffffffffffffff1603610b28576040517f08c379a0000000000000000000000000000000000000000000000000000000008152600401610b1f90611c4c565b60405180910390fd5b5f60015490506040518060e001604052808281526020013373ffffffffffffffffffffffffffffffffffffffff1681526020018573ffffffffffffffffffffffffffffffffffffffff1681526020013481526020015f6003811115610b9057610b8f6114f9565b5b81526020018481526020014281525060025f8381526020019081526020015f205f820151815f01556020820151816001015f6101000a81548173ffffffffffffffffffffffffffffffffffffffff021916908373ffffffffffffffffffffffffffffffffffffffff1602179055506040820151816002015f6101000a81548173ffffffffffffffffffffffffffffffffffffffff021916908373ffffffffffffffffffffffffffffffffffffffff160217905550606082015181600301556080820151816004015f6101000a81548160ff02191690836003811115610c7857610c776114f9565b5b021790555060a0820151816005019081610c929190611e1b565b5060c0820151816006015590505060015f815480929190610cb290611f17565b91905055508373ffffffffffffffffffffffffffffffffffffffff163373ffffffffffffffffffffffffffffffffffffffff16827f9405ad0a6208539879349284d71265479b1623846f70303da1f9890d6e8c10a734604051610d159190611873565b60405180910390a48091505092915050565b60015481565b5f47905090565b5f5f5f5f5f60605f876001548110610d81576040517f08c379a0000000000000000000000000000000000000000000000000000000008152600401610d789061194c565b60405180910390fd5b5f60025f8b81526020019081526020015f206040518060e00160405290815f8201548152602001600182015f9054906101000a900473ffffffffffffffffffffffffffffffffffffffff1673ffffffffffffffffffffffffffffffffffffffff1673ffffffffffffffffffffffffffffffffffffffff168152602001600282015f9054906101000a900473ffffffffffffffffffffffffffffffffffffffff1673ffffffffffffffffffffffffffffffffffffffff1673ffffffffffffffffffffffffffffffffffffffff16815260200160038201548152602001600482015f9054906101000a900460ff166003811115610e7f57610e7e6114f9565b5b6003811115610e9157610e906114f9565b5b8152602001600582018054610ea5906118d2565b80601f0160208091040260200160405190810160405280929190818152602001828054610ed1906118d2565b8015610f1c5780601f10610ef357610100808354040283529160200191610f1c565b820191905f5260205f20905b815481529060010190602001808311610eff57829003601f168201915b505050505081526020016006820154815250509050805f015181602001518260400151836060015184608001518560a001518660c0015198509850985098509850985098505050919395979092949650565b806001548110610fb3576040517f08c379a0000000000000000000000000000000000000000000000000000000008152600401610faa9061194c565b60405180910390fd5b5f60025f8481526020019081526020015f2090505f6003811115610fda57610fd96114f9565b5b816004015f9054906101000a900460ff166003811115610ffd57610ffc6114f9565b5b1461103d576040517f08c379a0000000000000000000000000000000000000000000000000000000008152600401611034906119b4565b60405180910390fd5b806001015f9054906101000a900473ffffffffffffffffffffffffffffffffffffffff1673ffffffffffffffffffffffffffffffffffffffff163373ffffffffffffffffffffffffffffffffffffffff16146110ce576040517f08c379a00000000000000000000000000000000000000000000000000000000081526004016110c590611fa8565b60405180910390fd5b6001816004015f6101000a81548160ff021916908360038111156110f5576110f46114f9565b5b02179055505f816003015490505f8260030181905550816002015f9054906101000a900473ffffffffffffffffffffffffffffffffffffffff1673ffffffffffffffffffffffffffffffffffffffff166108fc8290811502906040515f60405180830381858888f19350505050158015611171573d5f5f3e3d5ffd5b50816002015f9054906101000a900473ffffffffffffffffffffffffffffffffffffffff1673ffffffffffffffffffffffffffffffffffffffff16847f26c6863587332cefc2b323800ae3340bd094735ffa447072bf163101739e7df4836040516111dc9190611873565b60405180910390a350505050565b80600154811061122f576040517f08c379a00000000000000000000000000000000000000000000000000000000081526004016112269061194c565b60405180910390fd5b5f60025f8481526020019081526020015f2090505f6003811115611256576112556114f9565b5b816004015f9054906101000a900460ff166003811115611279576112786114f9565b5b146112b9576040517f08c379a00000000000000000000000000000000000000000000000000000000081526004016112b0906119b4565b60405180910390fd5b806001015f9054906101000a900473ffffffffffffffffffffffffffffffffffffffff1673ffffffffffffffffffffffffffffffffffffffff163373ffffffffffffffffffffffffffffffffffffffff1614806113645750806002015f9054906101000a900473ffffffffffffffffffffffffffffffffffffffff1673ffffffffffffffffffffffffffffffffffffffff163373ffffffffffffffffffffffffffffffffffffffff16145b6113a3576040517f08c379a000000000000000000000000000000000000000000000000000000000815260040161139a90611a1c565b60405180910390fd5b6003816004015f6101000a81548160ff021916908360038111156113ca576113c96114f9565b5b02179055503373ffffffffffffffffffffffffffffffffffffffff16837fc25e2b14e82d9713d1570e77d6549051cc07e59f7f354600ce0e0c0f2aa29b0e60405160405180910390a3505050565b5f5f9054906101000a900473ffffffffffffffffffffffffffffffffffffffff1681565b5f604051905090565b5f5ffd5b5f5ffd5b5f819050919050565b61145f8161144d565b8114611469575f5ffd5b50565b5f8135905061147a81611456565b92915050565b5f6020828403121561149557611494611445565b5b5f6114a28482850161146c565b91505092915050565b6114b48161144d565b82525050565b5f73ffffffffffffffffffffffffffffffffffffffff82169050919050565b5f6114e3826114ba565b9050919050565b6114f3816114d9565b82525050565b7f4e487b71000000000000000000000000000000000000000000000000000000005f52602160045260245ffd5b60048110611537576115366114f9565b5b50565b5f81905061154782611526565b919050565b5f6115568261153a565b9050919050565b6115668161154c565b82525050565b5f81519050919050565b5f82825260208201905092915050565b8281835e5f83830152505050565b5f601f19601f8301169050919050565b5f6115ae8261156c565b6115b88185611576565b93506115c8818560208601611586565b6115d181611594565b840191505092915050565b5f60e0820190506115ef5f83018a6114ab565b6115fc60208301896114ea565b61160960408301886114ea565b61161660608301876114ab565b611623608083018661155d565b81810360a083015261163581856115a4565b905061164460c08301846114ab565b98975050505050505050565b5f8115159050919050565b61166481611650565b811461166e575f5ffd5b50565b5f8135905061167f8161165b565b92915050565b5f5f6040838503121561169b5761169a611445565b5b5f6116a88582860161146c565b92505060206116b985828601611671565b9150509250929050565b6116cc816114d9565b81146116d6575f5ffd5b50565b5f813590506116e7816116c3565b92915050565b5f5ffd5b5f5ffd5b7f4e487b71000000000000000000000000000000000000000000000000000000005f52604160045260245ffd5b61172b82611594565b810181811067ffffffffffffffff8211171561174a576117496116f5565b5b80604052505050565b5f61175c61143c565b90506117688282611722565b919050565b5f67ffffffffffffffff821115611787576117866116f5565b5b61179082611594565b9050602081019050919050565b828183375f83830152505050565b5f6117bd6117b88461176d565b611753565b9050828152602081018484840111156117d9576117d86116f1565b5b6117e484828561179d565b509392505050565b5f82601f830112611800576117ff6116ed565b5b81356118108482602086016117ab565b91505092915050565b5f5f6040838503121561182f5761182e611445565b5b5f61183c858286016116d9565b925050602083013567ffffffffffffffff81111561185d5761185c611449565b5b611869858286016117ec565b9150509250929050565b5f6020820190506118865f8301846114ab565b92915050565b5f60208201905061189f5f8301846114ea565b92915050565b7f4e487b71000000000000000000000000000000000000000000000000000000005f52602260045260245ffd5b5f60028204905060018216806118e957607f821691505b6020821081036118fc576118fb6118a5565b5b50919050565b7f457363726f7720646f6573206e6f7420657869737400000000000000000000005f82015250565b5f611936601583611576565b915061194182611902565b602082019050919050565b5f6020820190508181035f8301526119638161192a565b9050919050565b7f457363726f77206973206e6f742070656e64696e6700000000000000000000005f82015250565b5f61199e601583611576565b91506119a98261196a565b602082019050919050565b5f6020820190508181035f8301526119cb81611992565b9050919050565b7f4e6f7420617574686f72697a65640000000000000000000000000000000000005f82015250565b5f611a06600e83611576565b9150611a11826119d2565b602082019050919050565b5f6020820190508181035f830152611a33816119fa565b9050919050565b7f4f6e6c79206172626974657200000000000000000000000000000000000000005f82015250565b5f611a6e600c83611576565b9150611a7982611a3a565b602082019050919050565b5f6020820190508181035f830152611a9b81611a62565b9050919050565b7f457363726f77206973206e6f74206469737075746564000000000000000000005f82015250565b5f611ad6601683611576565b9150611ae182611aa2565b602082019050919050565b5f6020820190508181035f830152611b0381611aca565b9050919050565b611b1381611650565b82525050565b5f602082019050611b2c5f830184611b0a565b92915050565b7f416d6f756e74206d7573742062652067726561746572207468616e207a65726f5f82015250565b5f611b66602083611576565b9150611b7182611b32565b602082019050919050565b5f6020820190508181035f830152611b9381611b5a565b9050919050565b7f496e76616c69642062656e6566696369617279000000000000000000000000005f82015250565b5f611bce601383611576565b9150611bd982611b9a565b602082019050919050565b5f6020820190508181035f830152611bfb81611bc2565b9050919050565b7f4465706f7369746f722063616e6e6f742062652062656e6566696369617279005f82015250565b5f611c36601f83611576565b9150611c4182611c02565b602082019050919050565b5f6020820190508181035f830152611c6381611c2a565b9050919050565b5f819050815f5260205f209050919050565b5f6020601f8301049050919050565b5f82821b905092915050565b5f60088302611cc67fffffffffffffffffffffffffffffffffffffffffffffffffffffffffffffffff82611c8b565b611cd08683611c8b565b95508019841693508086168417925050509392505050565b5f819050919050565b5f611d0b611d06611d018461144d565b611ce8565b61144d565b9050919050565b5f819050919050565b611d2483611cf1565b611d38611d3082611d12565b848454611c97565b825550505050565b5f5f905090565b611d4f611d40565b611d5a818484611d1b565b505050565b5f5b82811015611d8057611d755f828401611d47565b600181019050611d61565b505050565b601f821115611dd35782821115611dd257611d9f81611c6a565b611da883611c7c565b611db185611c7c565b6020861015611dbe575f90505b808301611dcd82840382611d5f565b505050505b5b505050565b5f82821c905092915050565b5f611df35f1984600802611dd8565b1980831691505092915050565b5f611e0b8383611de4565b9150826002028217905092915050565b611e248261156c565b67ffffffffffffffff811115611e3d57611e3c6116f5565b5b611e4782546118d2565b611e52828285611d85565b5f60209050601f831160018114611e83575f8415611e71578287015190505b611e7b8582611e00565b865550611ee2565b601f198416611e9186611c6a565b5f5b82811015611eb857848901518255600182019150602085019450602081019050611e93565b86831015611ed55784890151611ed1601f891682611de4565b8355505b6001600288020188555050505b505050505050565b7f4e487b71000000000000000000000000000000000000000000000000000000005f52601160045260245ffd5b5f611f218261144d565b91507fffffffffffffffffffffffffffffffffffffffffffffffffffffffffffffffff8203611f5357611f52611eea565b5b600182019050919050565b7f4f6e6c79206465706f7369746f722063616e20636f6d706c65746500000000005f82015250565b5f611f92601b83611576565b9150611f9d82611f5e565b602082019050919050565b5f6020820190508181035f830152611fbf81611f86565b905091905056fea2646970667358221220adcd1a895b5353be023947bf5646c5bc232e17287ee5aa88f9feaadcc51b084d64736f6c63430008230033","linkReferences":{}},"methodIdentifiers":{"arbiter()":"fe25e00a","complete(uint256)":"971d852f","createEscrow(address,string)":"3f407b4f","escrowCount()":"675ac67a","escrows(uint256)":"012f52ee","getContractBalance()":"6f9fb98a","getEscrow(uint256)":"7d19e596","raiseDispute(uint256)":"a5c1674e","refund(uint256)":"278ecde1","resolveDispute(uint256,bool)":"34b25ee2"},"id":19}