{"abi":[{"type":"constructor","inputs":[{"name":"_owners","type":"address[]","internalType":"address[]"},{"name":"_required","type":"uint256","internalType":"uint256"}],"stateMutability":"nonpayable"},{"type":"receive","stateMutability":"payable"},{"type":"function","name":"confirmTransaction","inputs":[{"name":"txId","type":"uint256","internalType":"uint256"}],"outputs":[],"stateMutability":"nonpayable"},{"type":"function","name":"getBalance","inputs":[],"outputs":[{"name":"","type":"uint256","internalType":"uint256"}],"stateMutability":"view"},{"type":"function","name":"getOwners","inputs":[],"outputs":[{"name":"","type":"address[]","internalType":"address[]"}],"stateMutability":"view"},{"type":"function","name":"getTransaction","inputs":[{"name":"txId","type":"uint256","internalType":"uint256"}],"outputs":[{"name":"","type":"uint256","internalType":"uint256"},{"name":"","type":"address","internalType":"address"},{"name":"","type":"uint256","internalType":"uint256"},{"name":"","type":"bool","internalType":"bool"},{"name":"","type":"uint256","internalType":"uint256"},{"name":"","type":"string","internalType":"string"}],"stateMutability":"view"},{"type":"function","name":"isConfirmed","inputs":[{"name":"","type":"uint256","internalType":"uint256"},{"name":"","type":"address","internalType":"address"}],"outputs":[{"name":"","type":"bool","internalType":"bool"}],"stateMutability":"view"},{"type":"function","name":"isOwner","inputs":[{"name":"","type":"address","internalType":"address"}],"outputs":[{"name":"","type":"bool","internalType":"bool"}],"stateMutability":"view"},{"type":"function","name":"owners","inputs":[{"name":"","type":"uint256","internalType":"uint256"}],"outputs":[{"name":"","type":"address","internalType":"address"}],"stateMutability":"view"},{"type":"function","name":"required","inputs":[],"outputs":[{"name":"","type":"uint256","internalType":"uint256"}],"stateMutability":"view"},{"type":"function","name":"revokeConfirmation","inputs":[{"name":"txId","type":"uint256","internalType":"uint256"}],"outputs":[],"stateMutability":"nonpayable"},{"type":"function","name":"submitTransaction","inputs":[{"name":"to","type":"address","internalType":"address"},{"name":"value","type":"uint256","internalType":"uint256"},{"name":"data","type":"bytes","internalType":"bytes"},{"name":"description","type":"string","internalType":"string"}],"outputs":[{"name":"","type":"uint256","internalType":"uint256"}],"stateMutability":"nonpayable"},{"type":"function","name":"transactionCount","inputs":[],"outputs":[{"name":"","type":"uint256","internalType":"uint256"}],"stateMutability":"view"},{"type":"function","name":"transactions","inputs":[{"name":"","type":"uint256","internalType":"uint256"}],"outputs":[{"name":"id","type":"uint256","internalType":"uint256"},{"name":"to","type":"address","internalType":"address"},{"name":"value","type":"uint256","internalType":"uint256"},{"name":"data","type":"bytes","internalType":"bytes"},{"name":"executed","type":"bool","internalType":"bool"},{"name":"confirmations","type":"uint256","internalType":"uint256"},{"name":"description","type":"string","internalType":"string"}],"stateMutability":"view"},{"type":"event","name":"ConfirmationRevoked","inputs":[{"name":"txId","type":"uint256","indexed":true,"internalType":"uint256"},{"name":"owner","type":"address","indexed":true,"internalType":"address"}],"anonymous":false},{"type":"event","name":"Deposit","inputs":[{"name":"sender","type":"address","indexed":true,"internalType":"address"},{"name":"amount","type":"uint256","indexed":false,"internalType":"uint256"}],"anonymous":false},{"type":"event","name":"TransactionConfirmed","inputs":[{"name":"txId","type":"uint256","indexed":true,"internalType":"uint256"},{"name":"owner","type":"address","indexed":true,"internalType":"address"}],"anonymous":false},{"type":"event","name":"TransactionExecuted","inputs":[{"name":"txId","type":"uint256","indexed":true,"internalType":"uint256"}],"anonymous":false},{"type":"event","name":"TransactionSubmitted","inputs":[{"name":"txId","type":"uint256","indexed":true,"internalType":"uint256"},{"name":"to","type":"address","indexed":true,"internalType":"address"},{"name":"value","type":"uint256","indexed":false,"internalType":"uint256"}],"anonymous":false}],"bytecode":{"object":"0x608060405234801561000f575f5ffd5b5060405161294c38038061294c833981810160405281019061003191906104ad565b5f825111610074576040517f08c379a000000000000000000000000000000000000000000000000000000000815260040161006b90610561565b60405180910390fd5b5f81118015610084575081518111155b6100c3576040517f08c379a00000000000000000000000000000000000000000000000000000000081526004016100ba906105c9565b60405180910390fd5b5f5f90505b82518110156102a9575f8382815181106100e5576100e46105e7565b5b602002602001015190505f73ffffffffffffffffffffffffffffffffffffffff168173ffffffffffffffffffffffffffffffffffffffff160361015d576040517f08c379a00000000000000000000000000000000000000000000000000000000081526004016101549061065e565b60405180910390fd5b60055f8273ffffffffffffffffffffffffffffffffffffffff1673ffffffffffffffffffffffffffffffffffffffff1681526020019081526020015f205f9054906101000a900460ff16156101e7576040517f08c379a00000000000000000000000000000000000000000000000000000000081526004016101de906106c6565b60405180910390fd5b600160055f8373ffffffffffffffffffffffffffffffffffffffff1673ffffffffffffffffffffffffffffffffffffffff1681526020019081526020015f205f6101000a81548160ff0219169083151502179055505f81908060018154018082558091505060019003905f5260205f20015f9091909190916101000a81548173ffffffffffffffffffffffffffffffffffffffff021916908373ffffffffffffffffffffffffffffffffffffffff1602179055505080806001019150506100c8565b50806001819055505f60028190555050506106e4565b5f604051905090565b5f5ffd5b5f5ffd5b5f5ffd5b5f601f19601f8301169050919050565b7f4e487b71000000000000000000000000000000000000000000000000000000005f52604160045260245ffd5b61031a826102d4565b810181811067ffffffffffffffff82111715610339576103386102e4565b5b80604052505050565b5f61034b6102bf565b90506103578282610311565b919050565b5f67ffffffffffffffff821115610376576103756102e4565b5b602082029050602081019050919050565b5f5ffd5b5f73ffffffffffffffffffffffffffffffffffffffff82169050919050565b5f6103b48261038b565b9050919050565b6103c4816103aa565b81146103ce575f5ffd5b50565b5f815190506103df816103bb565b92915050565b5f6103f76103f28461035c565b610342565b9050808382526020820190506020840283018581111561041a57610419610387565b5b835b81811015610443578061042f88826103d1565b84526020840193505060208101905061041c565b5050509392505050565b5f82601f830112610461576104606102d0565b5b81516104718482602086016103e5565b91505092915050565b5f819050919050565b61048c8161047a565b8114610496575f5ffd5b50565b5f815190506104a781610483565b92915050565b5f5f604083850312156104c3576104c26102c8565b5b5f83015167ffffffffffffffff8111156104e0576104df6102cc565b5b6104ec8582860161044d565b92505060206104fd85828601610499565b9150509250929050565b5f82825260208201905092915050565b7f4f776e65727320726571756972656400000000000000000000000000000000005f82015250565b5f61054b600f83610507565b915061055682610517565b602082019050919050565b5f6020820190508181035f8301526105788161053f565b9050919050565b7f496e76616c6964207265717569726564000000000000000000000000000000005f82015250565b5f6105b3601083610507565b91506105be8261057f565b602082019050919050565b5f6020820190508181035f8301526105e0816105a7565b9050919050565b7f4e487b71000000000000000000000000000000000000000000000000000000005f52603260045260245ffd5b7f496e76616c6964206f776e6572000000000000000000000000000000000000005f82015250565b5f610648600d83610507565b915061065382610614565b602082019050919050565b5f6020820190508181035f8301526106758161063c565b9050919050565b7f4475706c6963617465206f776e657200000000000000000000000000000000005f82015250565b5f6106b0600f83610507565b91506106bb8261067c565b602082019050919050565b5f6020820190508181035f8301526106dd816106a4565b9050919050565b61225b806106f15f395ff3fe6080604052600436106100aa575f3560e01c806380f59a651161006357806380f59a651461024a5780639ace38c214610286578063a0e67e2b146102c8578063b77bf600146102f2578063c01a8c841461031c578063dc8452cd14610344576100ff565b8063025e7c271461010357806312065fe01461013f57806320ea8d86146101695780632f54bf6e1461019157806333ea3dc8146101cd57806346e24b081461020e576100ff565b366100ff573373ffffffffffffffffffffffffffffffffffffffff167fe1fffcc4923d04b559f4d29a8bfc6cda04eb5b0d3c460751c2402c5c5cc9109c346040516100f591906112b4565b60405180910390a2005b5f5ffd5b34801561010e575f5ffd5b5061012960048036038101906101249190611308565b61036e565b6040516101369190611372565b60405180910390f35b34801561014a575f5ffd5b506101536103a8565b60405161016091906112b4565b60405180910390f35b348015610174575f5ffd5b5061018f600480360381019061018a9190611308565b6103af565b005b34801561019c575f5ffd5b506101b760048036038101906101b291906113b5565b61064c565b6040516101c491906113fa565b60405180910390f35b3480156101d8575f5ffd5b506101f360048036038101906101ee9190611308565b610669565b60405161020596959493929190611483565b60405180910390f35b348015610219575f5ffd5b50610234600480360381019061022f91906116b3565b6108b4565b60405161024191906112b4565b60405180910390f35b348015610255575f5ffd5b50610270600480360381019061026b919061174f565b610b30565b60405161027d91906113fa565b60405180910390f35b348015610291575f5ffd5b506102ac60048036038101906102a79190611308565b610b5a565b6040516102bf97969594939291906117df565b60405180910390f35b3480156102d3575f5ffd5b506102dc610ccf565b6040516102e99190611911565b60405180910390f35b3480156102fd575f5ffd5b50610306610d59565b60405161031391906112b4565b60405180910390f35b348015610327575f5ffd5b50610342600480360381019061033d9190611308565b610d5f565b005b34801561034f575f5ffd5b50610358611027565b60405161036591906112b4565b60405180910390f35b5f818154811061037c575f80fd5b905f5260205f20015f915054906101000a900473ffffffffffffffffffffffffffffffffffffffff1681565b5f47905090565b60055f3373ffffffffffffffffffffffffffffffffffffffff1673ffffffffffffffffffffffffffffffffffffffff1681526020019081526020015f205f9054906101000a900460ff16610438576040517f08c379a000000000000000000000000000000000000000000000000000000000815260040161042f9061197b565b60405180910390fd5b80600254811061047d576040517f08c379a0000000000000000000000000000000000000000000000000000000008152600401610474906119e3565b60405180910390fd5b8160035f8281526020019081526020015f206004015f9054906101000a900460ff16156104df576040517f08c379a00000000000000000000000000000000000000000000000000000000081526004016104d690611a4b565b60405180910390fd5b60045f8481526020019081526020015f205f3373ffffffffffffffffffffffffffffffffffffffff1673ffffffffffffffffffffffffffffffffffffffff1681526020019081526020015f205f9054906101000a900460ff16610577576040517f08c379a000000000000000000000000000000000000000000000000000000000815260040161056e90611ab3565b60405180910390fd5b5f60045f8581526020019081526020015f205f3373ffffffffffffffffffffffffffffffffffffffff1673ffffffffffffffffffffffffffffffffffffffff1681526020019081526020015f205f6101000a81548160ff02191690831515021790555060035f8481526020019081526020015f206005015f8154809291906105fe90611afe565b91905055503373ffffffffffffffffffffffffffffffffffffffff16837fdd7f1999a4389ea99f79c84df2162a8e32e72dd35838b19e4094bf0357c1b62e60405160405180910390a3505050565b6005602052805f5260405f205f915054906101000a900460ff1681565b5f5f5f5f5f60608660025481106106b5576040517f08c379a00000000000000000000000000000000000000000000000000000000081526004016106ac906119e3565b60405180910390fd5b5f60035f8a81526020019081526020015f206040518060e00160405290815f8201548152602001600182015f9054906101000a900473ffffffffffffffffffffffffffffffffffffffff1673ffffffffffffffffffffffffffffffffffffffff1673ffffffffffffffffffffffffffffffffffffffff1681526020016002820154815260200160038201805461074a90611b52565b80601f016020809104026020016040519081016040528092919081815260200182805461077690611b52565b80156107c15780601f10610798576101008083540402835291602001916107c1565b820191905f5260205f20905b8154815290600101906020018083116107a457829003601f168201915b50505050508152602001600482015f9054906101000a900460ff16151515158152602001600582015481526020016006820180546107fe90611b52565b80601f016020809104026020016040519081016040528092919081815260200182805461082a90611b52565b80156108755780601f1061084c57610100808354040283529160200191610875565b820191905f5260205f20905b81548152906001019060200180831161085857829003601f168201915b5050505050815250509050805f01518160200151826040015183608001518460a001518560c00151975097509750975097509750505091939550919395565b5f60055f3373ffffffffffffffffffffffffffffffffffffffff1673ffffffffffffffffffffffffffffffffffffffff1681526020019081526020015f205f9054906101000a900460ff1661093e576040517f08c379a00000000000000000000000000000000000000000000000000000000081526004016109359061197b565b60405180910390fd5b5f73ffffffffffffffffffffffffffffffffffffffff168573ffffffffffffffffffffffffffffffffffffffff16036109ac576040517f08c379a00000000000000000000000000000000000000000000000000000000081526004016109a390611bcc565b60405180910390fd5b5f60025490506040518060e001604052808281526020018773ffffffffffffffffffffffffffffffffffffffff1681526020018681526020018581526020015f151581526020015f81526020018481525060035f8381526020019081526020015f205f820151815f01556020820151816001015f6101000a81548173ffffffffffffffffffffffffffffffffffffffff021916908373ffffffffffffffffffffffffffffffffffffffff160217905550604082015181600201556060820151816003019081610a7b9190611d9b565b506080820151816004015f6101000a81548160ff02191690831515021790555060a0820151816005015560c0820151816006019081610aba9190611ecf565b5090505060025f815480929190610ad090611f9e565b91905055508573ffffffffffffffffffffffffffffffffffffffff16817f6974e8be5912ae917b788db2884a51e71cbe0f0979af347e6a32d07d52ef82a387604051610b1c91906112b4565b60405180910390a380915050949350505050565b6004602052815f5260405f20602052805f5260405f205f915091509054906101000a900460ff1681565b6003602052805f5260405f205f91509050805f015490806001015f9054906101000a900473ffffffffffffffffffffffffffffffffffffffff1690806002015490806003018054610baa90611b52565b80601f0160208091040260200160405190810160405280929190818152602001828054610bd690611b52565b8015610c215780601f10610bf857610100808354040283529160200191610c21565b820191905f5260205f20905b815481529060010190602001808311610c0457829003601f168201915b505050505090806004015f9054906101000a900460ff1690806005015490806006018054610c4e90611b52565b80601f0160208091040260200160405190810160405280929190818152602001828054610c7a90611b52565b8015610cc55780601f10610c9c57610100808354040283529160200191610cc5565b820191905f5260205f20905b815481529060010190602001808311610ca857829003601f168201915b5050505050905087565b60605f805480602002602001604051908101604052809291908181526020018280548015610d4f57602002820191905f5260205f20905b815f9054906101000a900473ffffffffffffffffffffffffffffffffffffffff1673ffffffffffffffffffffffffffffffffffffffff1681526020019060010190808311610d06575b5050505050905090565b60025481565b60055f3373ffffffffffffffffffffffffffffffffffffffff1673ffffffffffffffffffffffffffffffffffffffff1681526020019081526020015f205f9054906101000a900460ff16610de8576040517f08c379a0000000000000000000000000000000000000000000000000000000008152600401610ddf9061197b565b60405180910390fd5b806002548110610e2d576040517f08c379a0000000000000000000000000000000000000000000000000000000008152600401610e24906119e3565b60405180910390fd5b8160035f8281526020019081526020015f206004015f9054906101000a900460ff1615610e8f576040517f08c379a0000000000000000000000000000000000000000000000000000000008152600401610e8690611a4b565b60405180910390fd5b8260045f8281526020019081526020015f205f3373ffffffffffffffffffffffffffffffffffffffff1673ffffffffffffffffffffffffffffffffffffffff1681526020019081526020015f205f9054906101000a900460ff1615610f29576040517f08c379a0000000000000000000000000000000000000000000000000000000008152600401610f209061202f565b60405180910390fd5b600160045f8681526020019081526020015f205f3373ffffffffffffffffffffffffffffffffffffffff1673ffffffffffffffffffffffffffffffffffffffff1681526020019081526020015f205f6101000a81548160ff02191690831515021790555060035f8581526020019081526020015f206005015f815480929190610fb190611f9e565b91905055503373ffffffffffffffffffffffffffffffffffffffff16847f15c2f311c9e0f53b50388279894aeff029a3457884a6601e924fca879e12adcc60405160405180910390a360015460035f8681526020019081526020015f206005015410611021576110208461102d565b5b50505050565b60015481565b806002548110611072576040517f08c379a0000000000000000000000000000000000000000000000000000000008152600401611069906119e3565b60405180910390fd5b8160035f8281526020019081526020015f206004015f9054906101000a900460ff16156110d4576040517f08c379a00000000000000000000000000000000000000000000000000000000081526004016110cb90611a4b565b60405180910390fd5b5f60035f8581526020019081526020015f20905060015481600501541015611131576040517f08c379a000000000000000000000000000000000000000000000000000000000815260040161112890612097565b60405180910390fd5b8060020154471015611178576040517f08c379a000000000000000000000000000000000000000000000000000000000815260040161116f906120ff565b60405180910390fd5b6001816004015f6101000a81548160ff0219169083151502179055505f816001015f9054906101000a900473ffffffffffffffffffffffffffffffffffffffff1673ffffffffffffffffffffffffffffffffffffffff168260020154836003016040516111e591906121a7565b5f6040518083038185875af1925050503d805f811461121f576040519150601f19603f3d011682016040523d82523d5f602084013e611224565b606091505b5050905080611268576040517f08c379a000000000000000000000000000000000000000000000000000000000815260040161125f90612207565b60405180910390fd5b847f15ed165a284872ea7017f03df402a0cadfbfab588320ffaf83f160c2f82781c760405160405180910390a25050505050565b5f819050919050565b6112ae8161129c565b82525050565b5f6020820190506112c75f8301846112a5565b92915050565b5f604051905090565b5f5ffd5b5f5ffd5b6112e78161129c565b81146112f1575f5ffd5b50565b5f81359050611302816112de565b92915050565b5f6020828403121561131d5761131c6112d6565b5b5f61132a848285016112f4565b91505092915050565b5f73ffffffffffffffffffffffffffffffffffffffff82169050919050565b5f61135c82611333565b9050919050565b61136c81611352565b82525050565b5f6020820190506113855f830184611363565b92915050565b61139481611352565b811461139e575f5ffd5b50565b5f813590506113af8161138b565b92915050565b5f602082840312156113ca576113c96112d6565b5b5f6113d7848285016113a1565b91505092915050565b5f8115159050919050565b6113f4816113e0565b82525050565b5f60208201905061140d5f8301846113eb565b92915050565b5f81519050919050565b5f82825260208201905092915050565b8281835e5f83830152505050565b5f601f19601f8301169050919050565b5f61145582611413565b61145f818561141d565b935061146f81856020860161142d565b6114788161143b565b840191505092915050565b5f60c0820190506114965f8301896112a5565b6114a36020830188611363565b6114b060408301876112a5565b6114bd60608301866113eb565b6114ca60808301856112a5565b81810360a08301526114dc818461144b565b9050979650505050505050565b5f5ffd5b5f5ffd5b7f4e487b71000000000000000000000000000000000000000000000000000000005f52604160045260245ffd5b6115278261143b565b810181811067ffffffffffffffff82111715611546576115456114f1565b5b80604052505050565b5f6115586112cd565b9050611564828261151e565b919050565b5f67ffffffffffffffff821115611583576115826114f1565b5b61158c8261143b565b9050602081019050919050565b828183375f83830152505050565b5f6115b96115b484611569565b61154f565b9050828152602081018484840111156115d5576115d46114ed565b5b6115e0848285611599565b509392505050565b5f82601f8301126115fc576115fb6114e9565b5b813561160c8482602086016115a7565b91505092915050565b5f67ffffffffffffffff82111561162f5761162e6114f1565b5b6116388261143b565b9050602081019050919050565b5f61165761165284611615565b61154f565b905082815260208101848484011115611673576116726114ed565b5b61167e848285611599565b509392505050565b5f82601f83011261169a576116996114e9565b5b81356116aa848260208601611645565b91505092915050565b5f5f5f5f608085870312156116cb576116ca6112d6565b5b5f6116d8878288016113a1565b94505060206116e9878288016112f4565b935050604085013567ffffffffffffffff81111561170a576117096112da565b5b611716878288016115e8565b925050606085013567ffffffffffffffff811115611737576117366112da565b5b61174387828801611686565b91505092959194509250565b5f5f60408385031215611765576117646112d6565b5b5f611772858286016112f4565b9250506020611783858286016113a1565b9150509250929050565b5f81519050919050565b5f82825260208201905092915050565b5f6117b18261178d565b6117bb8185611797565b93506117cb81856020860161142d565b6117d48161143b565b840191505092915050565b5f60e0820190506117f25f83018a6112a5565b6117ff6020830189611363565b61180c60408301886112a5565b818103606083015261181e81876117a7565b905061182d60808301866113eb565b61183a60a08301856112a5565b81810360c083015261184c818461144b565b905098975050505050505050565b5f81519050919050565b5f82825260208201905092915050565b5f819050602082019050919050565b61188c81611352565b82525050565b5f61189d8383611883565b60208301905092915050565b5f602082019050919050565b5f6118bf8261185a565b6118c98185611864565b93506118d483611874565b805f5b838110156119045781516118eb8882611892565b97506118f6836118a9565b9250506001810190506118d7565b5085935050505092915050565b5f6020820190508181035f83015261192981846118b5565b905092915050565b7f4e6f7420616e206f776e657200000000000000000000000000000000000000005f82015250565b5f611965600c8361141d565b915061197082611931565b602082019050919050565b5f6020820190508181035f83015261199281611959565b9050919050565b7f5472616e73616374696f6e20646f6573206e6f742065786973740000000000005f82015250565b5f6119cd601a8361141d565b91506119d882611999565b602082019050919050565b5f6020820190508181035f8301526119fa816119c1565b9050919050565b7f416c7265616479206578656375746564000000000000000000000000000000005f82015250565b5f611a3560108361141d565b9150611a4082611a01565b602082019050919050565b5f6020820190508181035f830152611a6281611a29565b9050919050565b7f4e6f7420636f6e6669726d6564000000000000000000000000000000000000005f82015250565b5f611a9d600d8361141d565b9150611aa882611a69565b602082019050919050565b5f6020820190508181035f830152611aca81611a91565b9050919050565b7f4e487b71000000000000000000000000000000000000000000000000000000005f52601160045260245ffd5b5f611b088261129c565b91505f8203611b1a57611b19611ad1565b5b600182039050919050565b7f4e487b71000000000000000000000000000000000000000000000000000000005f52602260045260245ffd5b5f6002820490506001821680611b6957607f821691505b602082108103611b7c57611b7b611b25565b5b50919050565b7f496e76616c696420726563697069656e740000000000000000000000000000005f82015250565b5f611bb660118361141d565b9150611bc182611b82565b602082019050919050565b5f6020820190508181035f830152611be381611baa565b9050919050565b5f819050815f5260205f209050919050565b5f6020601f8301049050919050565b5f82821b905092915050565b5f60088302611c467fffffffffffffffffffffffffffffffffffffffffffffffffffffffffffffffff82611c0b565b611c508683611c0b565b95508019841693508086168417925050509392505050565b5f819050919050565b5f611c8b611c86611c818461129c565b611c68565b61129c565b9050919050565b5f819050919050565b611ca483611c71565b611cb8611cb082611c92565b848454611c17565b825550505050565b5f5f905090565b611ccf611cc0565b611cda818484611c9b565b505050565b5f5b82811015611d0057611cf55f828401611cc7565b600181019050611ce1565b505050565b601f821115611d535782821115611d5257611d1f81611bea565b611d2883611bfc565b611d3185611bfc565b6020861015611d3e575f90505b808301611d4d82840382611cdf565b505050505b5b505050565b5f82821c905092915050565b5f611d735f1984600802611d58565b1980831691505092915050565b5f611d8b8383611d64565b9150826002028217905092915050565b611da48261178d565b67ffffffffffffffff811115611dbd57611dbc6114f1565b5b611dc78254611b52565b611dd2828285611d05565b5f60209050601f831160018114611e03575f8415611df1578287015190505b611dfb8582611d80565b865550611e62565b601f198416611e1186611bea565b5f5b82811015611e3857848901518255600182019150602085019450602081019050611e13565b86831015611e555784890151611e51601f891682611d64565b8355505b6001600288020188555050505b505050505050565b5f819050815f5260205f209050919050565b601f821115611eca5782821115611ec957611e9681611e6a565b611e9f83611bfc565b611ea885611bfc565b6020861015611eb5575f90505b808301611ec482840382611cdf565b505050505b5b505050565b611ed882611413565b67ffffffffffffffff811115611ef157611ef06114f1565b5b611efb8254611b52565b611f06828285611e7c565b5f60209050601f831160018114611f37575f8415611f25578287015190505b611f2f8582611d80565b865550611f96565b601f198416611f4586611e6a565b5f5b82811015611f6c57848901518255600182019150602085019450602081019050611f47565b86831015611f895784890151611f85601f891682611d64565b8355505b6001600288020188555050505b505050505050565b5f611fa88261129c565b91507fffffffffffffffffffffffffffffffffffffffffffffffffffffffffffffffff8203611fda57611fd9611ad1565b5b600182019050919050565b7f416c726561647920636f6e6669726d65640000000000000000000000000000005f82015250565b5f61201960118361141d565b915061202482611fe5565b602082019050919050565b5f6020820190508181035f8301526120468161200d565b9050919050565b7f496e73756666696369656e7420636f6e6669726d6174696f6e730000000000005f82015250565b5f612081601a8361141d565b915061208c8261204d565b602082019050919050565b5f6020820190508181035f8301526120ae81612075565b9050919050565b7f496e73756666696369656e742062616c616e63650000000000000000000000005f82015250565b5f6120e960148361141d565b91506120f4826120b5565b602082019050919050565b5f6020820190508181035f830152612116816120dd565b9050919050565b5f81905092915050565b5f815461213381611b52565b61213d818661211d565b9450600182165f8114612157576001811461216c5761219e565b60ff198316865281151582028601935061219e565b61217585611bea565b5f5b8381101561219657815481890152600182019150602081019050612177565b838801955050505b50505092915050565b5f6121b28284612127565b915081905092915050565b7f5472616e73616374696f6e206661696c656400000000000000000000000000005f82015250565b5f6121f160128361141d565b91506121fc826121bd565b602082019050919050565b5f6020820190508181035f83015261221e816121e5565b905091905056fea2646970667358221220518b33c462f2291b65021589518804560c7f58fb275cb6bd46db042952a4340e64736f6c63430008230033","linkReferences":{}},"methodIdentifiers":{"confirmTransaction(uint256)":"c01a8c84","getBalance()":"12065fe0","getOwners()":"a0e67e2b","getTransaction(uint256)":"33ea3dc8","isConfirmed(uint256,address)":"80f59a65","isOwner(address)":"2f54bf6e","owners(uint256)":"025e7c27","required()":"dc8452cd","revokeConfirmation(uint256)":"20ea8d86","submitTransaction(address,uint256,bytes,string)":"46e24b08","transactionCount()":"b77bf600","transactions(uint256)":"9ace38c2"},"id":19}